{
  "_format": "hh-sol-artifact-1",
  "contractName": "MyNFT",
  "sourceName": "contracts/MyNFT.sol",
  "abi": [
    {
      "inputs": [
        {
          "internalType": "string",
          "name": "_baseURI",
          "type": "string"
        }
      ],
      "stateMutability": "nonpayable",
      "type": "constructor"
    },
    {
      "anonymous": false,
      "inputs": [
        {
          "indexed": true,
          "internalType": "address",
          "name": "owner",
          "type": "address"
        },
        {
          "indexed": true,
          "internalType": "address",
          "name": "approved",
          "type": "address"
        },
        {
          "indexed": true,
          "internalType": "uint256",
          "name": "tokenId",
          "type": "uint256"
        }
      ],
      "name": "Approval",
      "type": "event"
    },
    {
      "anonymous": false,
      "inputs": [
        {
          "indexed": true,
          "internalType": "address",
          "name": "owner",
          "type": "address"
        },
        {
          "indexed": true,
          "internalType": "address",
          "name": "operator",
          "type": "address"
        },
        {
          "indexed": false,
          "internalType": "bool",
          "name": "approved",
          "type": "bool"
        }
      ],
      "name": "ApprovalForAll",
      "type": "event"
    },
    {
      "anonymous": false,
      "inputs": [
        {
          "indexed": true,
          "internalType": "address",
          "name": "previousOwner",
          "type": "address"
        },
        {
          "indexed": true,
          "internalType": "address",
          "name": "newOwner",
          "type": "address"
        }
      ],
      "name": "OwnershipTransferred",
      "type": "event"
    },
    {
      "anonymous": false,
      "inputs": [
        {
          "indexed": true,
          "internalType": "address",
          "name": "from",
          "type": "address"
        },
        {
          "indexed": true,
          "internalType": "address",
          "name": "to",
          "type": "address"
        },
        {
          "indexed": true,
          "internalType": "uint256",
          "name": "tokenId",
          "type": "uint256"
        }
      ],
      "name": "Transfer",
      "type": "event"
    },
    {
      "inputs": [
        {
          "internalType": "address",
          "name": "to",
          "type": "address"
        },
        {
          "internalType": "uint256",
          "name": "tokenId",
          "type": "uint256"
        }
      ],
      "name": "approve",
      "outputs": [],
      "stateMutability": "nonpayable",
      "type": "function"
    },
    {
      "inputs": [
        {
          "internalType": "address",
          "name": "owner",
          "type": "address"
        }
      ],
      "name": "balanceOf",
      "outputs": [
        {
          "internalType": "uint256",
          "name": "",
          "type": "uint256"
        }
      ],
      "stateMutability": "view",
      "type": "function"
    },
    {
      "inputs": [
        {
          "internalType": "uint256",
          "name": "_mintQty",
          "type": "uint256"
        }
      ],
      "name": "batchMint",
      "outputs": [],
      "stateMutability": "nonpayable",
      "type": "function"
    },
    {
      "inputs": [],
      "name": "disableSetBaseURI",
      "outputs": [],
      "stateMutability": "nonpayable",
      "type": "function"
    },
    {
      "inputs": [
        {
          "internalType": "uint256",
          "name": "tokenId",
          "type": "uint256"
        }
      ],
      "name": "getApproved",
      "outputs": [
        {
          "internalType": "address",
          "name": "",
          "type": "address"
        }
      ],
      "stateMutability": "view",
      "type": "function"
    },
    {
      "inputs": [
        {
          "internalType": "address",
          "name": "owner",
          "type": "address"
        },
        {
          "internalType": "address",
          "name": "operator",
          "type": "address"
        }
      ],
      "name": "isApprovedForAll",
      "outputs": [
        {
          "internalType": "bool",
          "name": "",
          "type": "bool"
        }
      ],
      "stateMutability": "view",
      "type": "function"
    },
    {
      "inputs": [],
      "name": "maxSupply",
      "outputs": [
        {
          "internalType": "uint256",
          "name": "",
          "type": "uint256"
        }
      ],
      "stateMutability": "view",
      "type": "function"
    },
    {
      "inputs": [],
      "name": "name",
      "outputs": [
        {
          "internalType": "string",
          "name": "",
          "type": "string"
        }
      ],
      "stateMutability": "view",
      "type": "function"
    },
    {
      "inputs": [],
      "name": "owner",
      "outputs": [
        {
          "internalType": "address",
          "name": "",
          "type": "address"
        }
      ],
      "stateMutability": "view",
      "type": "function"
    },
    {
      "inputs": [
        {
          "internalType": "uint256",
          "name": "tokenId",
          "type": "uint256"
        }
      ],
      "name": "ownerOf",
      "outputs": [
        {
          "internalType": "address",
          "name": "",
          "type": "address"
        }
      ],
      "stateMutability": "view",
      "type": "function"
    },
    {
      "inputs": [],
      "name": "renounceOwnership",
      "outputs": [],
      "stateMutability": "nonpayable",
      "type": "function"
    },
    {
      "inputs": [
        {
          "internalType": "address",
          "name": "from",
          "type": "address"
        },
        {
          "internalType": "address",
          "name": "to",
          "type": "address"
        },
        {
          "internalType": "uint256",
          "name": "tokenId",
          "type": "uint256"
        }
      ],
      "name": "safeTransferFrom",
      "outputs": [],
      "stateMutability": "nonpayable",
      "type": "function"
    },
    {
      "inputs": [
        {
          "internalType": "address",
          "name": "from",
          "type": "address"
        },
        {
          "internalType": "address",
          "name": "to",
          "type": "address"
        },
        {
          "internalType": "uint256",
          "name": "tokenId",
          "type": "uint256"
        },
        {
          "internalType": "bytes",
          "name": "_data",
          "type": "bytes"
        }
      ],
      "name": "safeTransferFrom",
      "outputs": [],
      "stateMutability": "nonpayable",
      "type": "function"
    },
    {
      "inputs": [
        {
          "internalType": "address",
          "name": "operator",
          "type": "address"
        },
        {
          "internalType": "bool",
          "name": "approved",
          "type": "bool"
        }
      ],
      "name": "setApprovalForAll",
      "outputs": [],
      "stateMutability": "nonpayable",
      "type": "function"
    },
    {
      "inputs": [
        {
          "internalType": "string",
          "name": "_baseURI",
          "type": "string"
        }
      ],
      "name": "setBaseURI",
      "outputs": [],
      "stateMutability": "nonpayable",
      "type": "function"
    },
    {
      "inputs": [
        {
          "internalType": "bytes4",
          "name": "interfaceId",
          "type": "bytes4"
        }
      ],
      "name": "supportsInterface",
      "outputs": [
        {
          "internalType": "bool",
          "name": "",
          "type": "bool"
        }
      ],
      "stateMutability": "view",
      "type": "function"
    },
    {
      "inputs": [],
      "name": "symbol",
      "outputs": [
        {
          "internalType": "string",
          "name": "",
          "type": "string"
        }
      ],
      "stateMutability": "view",
      "type": "function"
    },
    {
      "inputs": [
        {
          "internalType": "uint256",
          "name": "index",
          "type": "uint256"
        }
      ],
      "name": "tokenByIndex",
      "outputs": [
        {
          "internalType": "uint256",
          "name": "",
          "type": "uint256"
        }
      ],
      "stateMutability": "view",
      "type": "function"
    },
    {
      "inputs": [
        {
          "internalType": "address",
          "name": "owner",
          "type": "address"
        },
        {
          "internalType": "uint256",
          "name": "index",
          "type": "uint256"
        }
      ],
      "name": "tokenOfOwnerByIndex",
      "outputs": [
        {
          "internalType": "uint256",
          "name": "",
          "type": "uint256"
        }
      ],
      "stateMutability": "view",
      "type": "function"
    },
    {
      "inputs": [
        {
          "internalType": "uint256",
          "name": "tokenId",
          "type": "uint256"
        }
      ],
      "name": "tokenURI",
      "outputs": [
        {
          "internalType": "string",
          "name": "",
          "type": "string"
        }
      ],
      "stateMutability": "view",
      "type": "function"
    },
    {
      "inputs": [],
      "name": "totalSupply",
      "outputs": [
        {
          "internalType": "uint256",
          "name": "",
          "type": "uint256"
        }
      ],
      "stateMutability": "view",
      "type": "function"
    },
    {
      "inputs": [
        {
          "internalType": "address",
          "name": "from",
          "type": "address"
        },
        {
          "internalType": "address",
          "name": "to",
          "type": "address"
        },
        {
          "internalType": "uint256",
          "name": "tokenId",
          "type": "uint256"
        }
      ],
      "name": "transferFrom",
      "outputs": [],
      "stateMutability": "nonpayable",
      "type": "function"
    },
    {
      "inputs": [
        {
          "internalType": "address",
          "name": "newOwner",
          "type": "address"
        }
      ],
      "name": "transferOwnership",
      "outputs": [],
      "stateMutability": "nonpayable",
      "type": "function"
    }
  ],
  "bytecode": "0x60806040526005600d556000600e60006101000a81548160ff0219169083151502179055503480156200003157600080fd5b5060405162003e7638038062003e76833981810160405281019062000057919062000327565b6040518060400160405280600581526020017f50656e426c0000000000000000000000000000000000000000000000000000008152506040518060400160405280600381526020017f504e4c00000000000000000000000000000000000000000000000000000000008152508160009080519060200190620000db92919062000205565b508060019080519060200190620000f492919062000205565b505050620001176200010b6200013760201b60201c565b6200013f60201b60201c565b80600c90805190602001906200012f92919062000205565b5050620004dc565b600033905090565b6000600660009054906101000a900473ffffffffffffffffffffffffffffffffffffffff16905081600660006101000a81548173ffffffffffffffffffffffffffffffffffffffff021916908373ffffffffffffffffffffffffffffffffffffffff1602179055508173ffffffffffffffffffffffffffffffffffffffff168173ffffffffffffffffffffffffffffffffffffffff167f8be0079c531659141344cd1fd0a4f28419497f9722a3daafe3b4186f6b6457e060405160405180910390a35050565b828054620002139062000401565b90600052602060002090601f01602090048101928262000237576000855562000283565b82601f106200025257805160ff191683800117855562000283565b8280016001018555821562000283579182015b828111156200028257825182559160200191906001019062000265565b5b50905062000292919062000296565b5090565b5b80821115620002b157600081600090555060010162000297565b5090565b6000620002cc620002c68462000395565b6200036c565b905082815260208101848484011115620002e557600080fd5b620002f2848285620003cb565b509392505050565b600082601f8301126200030c57600080fd5b81516200031e848260208601620002b5565b91505092915050565b6000602082840312156200033a57600080fd5b600082015167ffffffffffffffff8111156200035557600080fd5b6200036384828501620002fa565b91505092915050565b6000620003786200038b565b905062000386828262000437565b919050565b6000604051905090565b600067ffffffffffffffff821115620003b357620003b26200049c565b5b620003be82620004cb565b9050602081019050919050565b60005b83811015620003eb578082015181840152602081019050620003ce565b83811115620003fb576000848401525b50505050565b600060028204905060018216806200041a57607f821691505b602082108114156200043157620004306200046d565b5b50919050565b6200044282620004cb565b810181811067ffffffffffffffff821117156200046457620004636200049c565b5b80604052505050565b7f4e487b7100000000000000000000000000000000000000000000000000000000600052602260045260246000fd5b7f4e487b7100000000000000000000000000000000000000000000000000000000600052604160045260246000fd5b6000601f19601f8301169050919050565b61398a80620004ec6000396000f3fe608060405234801561001057600080fd5b506004361061014d5760003560e01c806370a08231116100c3578063b10d86551161007c578063b10d86551461039c578063b88d4fde146103a6578063c87b56dd146103c2578063d5abeb01146103f2578063e985e9c514610410578063f2fde38b146104405761014d565b806370a08231146102ee578063715018a61461031e5780638467be0d146103285780638da5cb5b1461034457806395d89b4114610362578063a22cb465146103805761014d565b806323b872dd1161011557806323b872dd1461020a5780632f745c591461022657806342842e0e146102565780634f6ccce71461027257806355f804b3146102a25780636352211e146102be5761014d565b806301ffc9a71461015257806306fdde0314610182578063081812fc146101a0578063095ea7b3146101d057806318160ddd146101ec575b600080fd5b61016c60048036038101906101679190612735565b61045c565b6040516101799190612cb5565b60405180910390f35b61018a61046e565b6040516101979190612cd0565b60405180910390f35b6101ba60048036038101906101b591906127c8565b610500565b6040516101c79190612c4e565b60405180910390f35b6101ea60048036038101906101e591906126f9565b610585565b005b6101f461069d565b6040516102019190612f72565b60405180910390f35b610224600480360381019061021f91906125f3565b6106aa565b005b610240600480360381019061023b91906126f9565b61070a565b60405161024d9190612f72565b60405180910390f35b610270600480360381019061026b91906125f3565b6107af565b005b61028c600480360381019061028791906127c8565b6107cf565b6040516102999190612f72565b60405180910390f35b6102bc60048036038101906102b79190612787565b610866565b005b6102d860048036038101906102d391906127c8565b61094c565b6040516102e59190612c4e565b60405180910390f35b6103086004803603810190610303919061258e565b6109fe565b6040516103159190612f72565b60405180910390f35b610326610ab6565b005b610342600480360381019061033d91906127c8565b610b3e565b005b61034c610c60565b6040516103599190612c4e565b60405180910390f35b61036a610c8a565b6040516103779190612cd0565b60405180910390f35b61039a600480360381019061039591906126bd565b610d1c565b005b6103a4610d32565b005b6103c060048036038101906103bb9190612642565b610dcb565b005b6103dc60048036038101906103d791906127c8565b610e2d565b6040516103e99190612cd0565b60405180910390f35b6103fa610ed5565b6040516104079190612f72565b60405180910390f35b61042a600480360381019061042591906125b7565b610edb565b6040516104379190612cb5565b60405180910390f35b61045a6004803603810190610455919061258e565b610f6f565b005b600061046782611067565b9050919050565b60606000805461047d906131dd565b80601f01602080910402602001604051908101604052809291908181526020018280546104a9906131dd565b80156104f65780601f106104cb576101008083540402835291602001916104f6565b820191906000526020600020905b8154815290600101906020018083116104d957829003601f168201915b5050505050905090565b600061050b826110e1565b61054a576040517f08c379a000000000000000000000000000000000000000000000000000000000815260040161054190612e92565b60405180910390fd5b6004600083815260200190815260200160002060009054906101000a900473ffffffffffffffffffffffffffffffffffffffff169050919050565b60006105908261094c565b90508073ffffffffffffffffffffffffffffffffffffffff168373ffffffffffffffffffffffffffffffffffffffff161415610601576040517f08c379a00000000000000000000000000000000000000000000000000000000081526004016105f890612ef2565b60405180910390fd5b8073ffffffffffffffffffffffffffffffffffffffff1661062061114d565b73ffffffffffffffffffffffffffffffffffffffff16148061064f575061064e8161064961114d565b610edb565b5b61068e576040517f08c379a000000000000000000000000000000000000000000000000000000000815260040161068590612e12565b60405180910390fd5b6106988383611155565b505050565b6000600980549050905090565b6106bb6106b561114d565b8261120e565b6106fa576040517f08c379a00000000000000000000000000000000000000000000000000000000081526004016106f190612f12565b60405180910390fd5b6107058383836112ec565b505050565b6000610715836109fe565b8210610756576040517f08c379a000000000000000000000000000000000000000000000000000000000815260040161074d90612cf2565b60405180910390fd5b600760008473ffffffffffffffffffffffffffffffffffffffff1673ffffffffffffffffffffffffffffffffffffffff168152602001908152602001600020600083815260200190815260200160002054905092915050565b6107ca83838360405180602001604052806000815250610dcb565b505050565b60006107d961069d565b821061081a576040517f08c379a000000000000000000000000000000000000000000000000000000000815260040161081190612f52565b60405180910390fd5b60098281548110610854577f4e487b7100000000000000000000000000000000000000000000000000000000600052603260045260246000fd5b90600052602060002001549050919050565b61086e61114d565b73ffffffffffffffffffffffffffffffffffffffff1661088c610c60565b73ffffffffffffffffffffffffffffffffffffffff16146108e2576040517f08c379a00000000000000000000000000000000000000000000000000000000081526004016108d990612eb2565b60405180910390fd5b600e60009054906101000a900460ff1615610932576040517f08c379a000000000000000000000000000000000000000000000000000000000815260040161092990612d92565b60405180910390fd5b80600c90805190602001906109489291906123b2565b5050565b6000806002600084815260200190815260200160002060009054906101000a900473ffffffffffffffffffffffffffffffffffffffff169050600073ffffffffffffffffffffffffffffffffffffffff168173ffffffffffffffffffffffffffffffffffffffff1614156109f5576040517f08c379a00000000000000000000000000000000000000000000000000000000081526004016109ec90612e52565b60405180910390fd5b80915050919050565b60008073ffffffffffffffffffffffffffffffffffffffff168273ffffffffffffffffffffffffffffffffffffffff161415610a6f576040517f08c379a0000000000000000000000000000000000000000000000000000000008152600401610a6690612e32565b60405180910390fd5b600360008373ffffffffffffffffffffffffffffffffffffffff1673ffffffffffffffffffffffffffffffffffffffff168152602001908152602001600020549050919050565b610abe61114d565b73ffffffffffffffffffffffffffffffffffffffff16610adc610c60565b73ffffffffffffffffffffffffffffffffffffffff1614610b32576040517f08c379a0000000000000000000000000000000000000000000000000000000008152600401610b2990612eb2565b60405180910390fd5b610b3c6000611553565b565b610b4661114d565b73ffffffffffffffffffffffffffffffffffffffff16610b64610c60565b73ffffffffffffffffffffffffffffffffffffffff1614610bba576040517f08c379a0000000000000000000000000000000000000000000000000000000008152600401610bb190612eb2565b60405180910390fd5b600d5481610bc661069d565b610bd0919061306c565b1115610c11576040517f08c379a0000000000000000000000000000000000000000000000000000000008152600401610c0890612f32565b60405180910390fd5b6000600190505b818111610c5c576000610c2b600b611619565b9050610c37600b611627565b610c48610c4261114d565b8261163d565b508080610c5490613240565b915050610c18565b5050565b6000600660009054906101000a900473ffffffffffffffffffffffffffffffffffffffff16905090565b606060018054610c99906131dd565b80601f0160208091040260200160405190810160405280929190818152602001828054610cc5906131dd565b8015610d125780601f10610ce757610100808354040283529160200191610d12565b820191906000526020600020905b815481529060010190602001808311610cf557829003601f168201915b5050505050905090565b610d2e610d2761114d565b838361165b565b5050565b610d3a61114d565b73ffffffffffffffffffffffffffffffffffffffff16610d58610c60565b73ffffffffffffffffffffffffffffffffffffffff1614610dae576040517f08c379a0000000000000000000000000000000000000000000000000000000008152600401610da590612eb2565b60405180910390fd5b6001600e60006101000a81548160ff021916908315150217905550565b610ddc610dd661114d565b8361120e565b610e1b576040517f08c379a0000000000000000000000000000000000000000000000000000000008152600401610e1290612f12565b60405180910390fd5b610e27848484846117c8565b50505050565b6060610e38826110e1565b610e77576040517f08c379a0000000000000000000000000000000000000000000000000000000008152600401610e6e90612ed2565b60405180910390fd5b6000600c8054610e86906131dd565b905011610ea25760405180602001604052806000815250610ece565b600c610ead83611824565b604051602001610ebe929190612c1f565b6040516020818303038152906040525b9050919050565b600d5481565b6000600560008473ffffffffffffffffffffffffffffffffffffffff1673ffffffffffffffffffffffffffffffffffffffff16815260200190815260200160002060008373ffffffffffffffffffffffffffffffffffffffff1673ffffffffffffffffffffffffffffffffffffffff16815260200190815260200160002060009054906101000a900460ff16905092915050565b610f7761114d565b73ffffffffffffffffffffffffffffffffffffffff16610f95610c60565b73ffffffffffffffffffffffffffffffffffffffff1614610feb576040517f08c379a0000000000000000000000000000000000000000000000000000000008152600401610fe290612eb2565b60405180910390fd5b600073ffffffffffffffffffffffffffffffffffffffff168173ffffffffffffffffffffffffffffffffffffffff16141561105b576040517f08c379a000000000000000000000000000000000000000000000000000000000815260040161105290612d32565b60405180910390fd5b61106481611553565b50565b60007f780e9d63000000000000000000000000000000000000000000000000000000007bffffffffffffffffffffffffffffffffffffffffffffffffffffffff1916827bffffffffffffffffffffffffffffffffffffffffffffffffffffffff191614806110da57506110d9826119d1565b5b9050919050565b60008073ffffffffffffffffffffffffffffffffffffffff166002600084815260200190815260200160002060009054906101000a900473ffffffffffffffffffffffffffffffffffffffff1673ffffffffffffffffffffffffffffffffffffffff1614159050919050565b600033905090565b816004600083815260200190815260200160002060006101000a81548173ffffffffffffffffffffffffffffffffffffffff021916908373ffffffffffffffffffffffffffffffffffffffff160217905550808273ffffffffffffffffffffffffffffffffffffffff166111c88361094c565b73ffffffffffffffffffffffffffffffffffffffff167f8c5be1e5ebec7d5bd14f71427d1e84f3dd0314c0f7b2291e5b200ac8c7c3b92560405160405180910390a45050565b6000611219826110e1565b611258576040517f08c379a000000000000000000000000000000000000000000000000000000000815260040161124f90612df2565b60405180910390fd5b60006112638361094c565b90508073ffffffffffffffffffffffffffffffffffffffff168473ffffffffffffffffffffffffffffffffffffffff1614806112a557506112a48185610edb565b5b806112e357508373ffffffffffffffffffffffffffffffffffffffff166112cb84610500565b73ffffffffffffffffffffffffffffffffffffffff16145b91505092915050565b8273ffffffffffffffffffffffffffffffffffffffff1661130c8261094c565b73ffffffffffffffffffffffffffffffffffffffff1614611362576040517f08c379a000000000000000000000000000000000000000000000000000000000815260040161135990612d52565b60405180910390fd5b600073ffffffffffffffffffffffffffffffffffffffff168273ffffffffffffffffffffffffffffffffffffffff1614156113d2576040517f08c379a00000000000000000000000000000000000000000000000000000000081526004016113c990612db2565b60405180910390fd5b6113dd838383611ab3565b6113e8600082611155565b6001600360008573ffffffffffffffffffffffffffffffffffffffff1673ffffffffffffffffffffffffffffffffffffffff168152602001908152602001600020600082825461143891906130f3565b925050819055506001600360008473ffffffffffffffffffffffffffffffffffffffff1673ffffffffffffffffffffffffffffffffffffffff168152602001908152602001600020600082825461148f919061306c565b92505081905550816002600083815260200190815260200160002060006101000a81548173ffffffffffffffffffffffffffffffffffffffff021916908373ffffffffffffffffffffffffffffffffffffffff160217905550808273ffffffffffffffffffffffffffffffffffffffff168473ffffffffffffffffffffffffffffffffffffffff167fddf252ad1be2c89b69c2b068fc378daa952ba7f163c4a11628f55a4df523b3ef60405160405180910390a461154e838383611ac3565b505050565b6000600660009054906101000a900473ffffffffffffffffffffffffffffffffffffffff16905081600660006101000a81548173ffffffffffffffffffffffffffffffffffffffff021916908373ffffffffffffffffffffffffffffffffffffffff1602179055508173ffffffffffffffffffffffffffffffffffffffff168173ffffffffffffffffffffffffffffffffffffffff167f8be0079c531659141344cd1fd0a4f28419497f9722a3daafe3b4186f6b6457e060405160405180910390a35050565b600081600001549050919050565b6001816000016000828254019250508190555050565b611657828260405180602001604052806000815250611ac8565b5050565b8173ffffffffffffffffffffffffffffffffffffffff168373ffffffffffffffffffffffffffffffffffffffff1614156116ca576040517f08c379a00000000000000000000000000000000000000000000000000000000081526004016116c190612dd2565b60405180910390fd5b80600560008573ffffffffffffffffffffffffffffffffffffffff1673ffffffffffffffffffffffffffffffffffffffff16815260200190815260200160002060008473ffffffffffffffffffffffffffffffffffffffff1673ffffffffffffffffffffffffffffffffffffffff16815260200190815260200160002060006101000a81548160ff0219169083151502179055508173ffffffffffffffffffffffffffffffffffffffff168373ffffffffffffffffffffffffffffffffffffffff167f17307eab39ab6107e8899845ad3d59bd9653f200f220920489ca2b5937696c31836040516117bb9190612cb5565b60405180910390a3505050565b6117d38484846112ec565b6117df84848484611b23565b61181e576040517f08c379a000000000000000000000000000000000000000000000000000000000815260040161181590612d12565b60405180910390fd5b50505050565b6060600082141561186c576040518060400160405280600181526020017f300000000000000000000000000000000000000000000000000000000000000081525090506119cc565b600082905060005b6000821461189e57808061188790613240565b915050600a8261189791906130c2565b9150611874565b60008167ffffffffffffffff8111156118e0577f4e487b7100000000000000000000000000000000000000000000000000000000600052604160045260246000fd5b6040519080825280601f01601f1916602001820160405280156119125781602001600182028036833780820191505090505b5090505b600085146119c55760018261192b91906130f3565b9150600a8561193a9190613289565b6030611946919061306c565b60f81b818381518110611982577f4e487b7100000000000000000000000000000000000000000000000000000000600052603260045260246000fd5b60200101907effffffffffffffffffffffffffffffffffffffffffffffffffffffffffffff1916908160001a905350600a856119be91906130c2565b9450611916565b8093505050505b919050565b60007f80ac58cd000000000000000000000000000000000000000000000000000000007bffffffffffffffffffffffffffffffffffffffffffffffffffffffff1916827bffffffffffffffffffffffffffffffffffffffffffffffffffffffff19161480611a9c57507f5b5e139f000000000000000000000000000000000000000000000000000000007bffffffffffffffffffffffffffffffffffffffffffffffffffffffff1916827bffffffffffffffffffffffffffffffffffffffffffffffffffffffff1916145b80611aac5750611aab82611cba565b5b9050919050565b611abe838383611d24565b505050565b505050565b611ad28383611e38565b611adf6000848484611b23565b611b1e576040517f08c379a0000000000000000000000000000000000000000000000000000000008152600401611b1590612d12565b60405180910390fd5b505050565b6000611b448473ffffffffffffffffffffffffffffffffffffffff16612012565b15611cad578373ffffffffffffffffffffffffffffffffffffffff1663150b7a02611b6d61114d565b8786866040518563ffffffff1660e01b8152600401611b8f9493929190612c69565b602060405180830381600087803b158015611ba957600080fd5b505af1925050508015611bda57506040513d601f19601f82011682018060405250810190611bd7919061275e565b60015b611c5d573d8060008114611c0a576040519150601f19603f3d011682016040523d82523d6000602084013e611c0f565b606091505b50600081511415611c55576040517f08c379a0000000000000000000000000000000000000000000000000000000008152600401611c4c90612d12565b60405180910390fd5b805181602001fd5b63150b7a0260e01b7bffffffffffffffffffffffffffffffffffffffffffffffffffffffff1916817bffffffffffffffffffffffffffffffffffffffffffffffffffffffff191614915050611cb2565b600190505b949350505050565b60007f01ffc9a7000000000000000000000000000000000000000000000000000000007bffffffffffffffffffffffffffffffffffffffffffffffffffffffff1916827bffffffffffffffffffffffffffffffffffffffffffffffffffffffff1916149050919050565b611d2f838383612035565b600073ffffffffffffffffffffffffffffffffffffffff168373ffffffffffffffffffffffffffffffffffffffff161415611d7257611d6d8161203a565b611db1565b8173ffffffffffffffffffffffffffffffffffffffff168373ffffffffffffffffffffffffffffffffffffffff1614611db057611daf8382612083565b5b5b600073ffffffffffffffffffffffffffffffffffffffff168273ffffffffffffffffffffffffffffffffffffffff161415611df457611def816121f0565b611e33565b8273ffffffffffffffffffffffffffffffffffffffff168273ffffffffffffffffffffffffffffffffffffffff1614611e3257611e318282612333565b5b5b505050565b600073ffffffffffffffffffffffffffffffffffffffff168273ffffffffffffffffffffffffffffffffffffffff161415611ea8576040517f08c379a0000000000000000000000000000000000000000000000000000000008152600401611e9f90612e72565b60405180910390fd5b611eb1816110e1565b15611ef1576040517f08c379a0000000000000000000000000000000000000000000000000000000008152600401611ee890612d72565b60405180910390fd5b611efd60008383611ab3565b6001600360008473ffffffffffffffffffffffffffffffffffffffff1673ffffffffffffffffffffffffffffffffffffffff1681526020019081526020016000206000828254611f4d919061306c565b92505081905550816002600083815260200190815260200160002060006101000a81548173ffffffffffffffffffffffffffffffffffffffff021916908373ffffffffffffffffffffffffffffffffffffffff160217905550808273ffffffffffffffffffffffffffffffffffffffff16600073ffffffffffffffffffffffffffffffffffffffff167fddf252ad1be2c89b69c2b068fc378daa952ba7f163c4a11628f55a4df523b3ef60405160405180910390a461200e60008383611ac3565b5050565b6000808273ffffffffffffffffffffffffffffffffffffffff163b119050919050565b505050565b600980549050600a600083815260200190815260200160002081905550600981908060018154018082558091505060019003906000526020600020016000909190919091505550565b60006001612090846109fe565b61209a91906130f3565b905060006008600084815260200190815260200160002054905081811461217f576000600760008673ffffffffffffffffffffffffffffffffffffffff1673ffffffffffffffffffffffffffffffffffffffff168152602001908152602001600020600084815260200190815260200160002054905080600760008773ffffffffffffffffffffffffffffffffffffffff1673ffffffffffffffffffffffffffffffffffffffff168152602001908152602001600020600084815260200190815260200160002081905550816008600083815260200190815260200160002081905550505b6008600084815260200190815260200160002060009055600760008573ffffffffffffffffffffffffffffffffffffffff1673ffffffffffffffffffffffffffffffffffffffff16815260200190815260200160002060008381526020019081526020016000206000905550505050565b6000600160098054905061220491906130f3565b90506000600a600084815260200190815260200160002054905060006009838154811061225a577f4e487b7100000000000000000000000000000000000000000000000000000000600052603260045260246000fd5b9060005260206000200154905080600983815481106122a2577f4e487b7100000000000000000000000000000000000000000000000000000000600052603260045260246000fd5b906000526020600020018190555081600a600083815260200190815260200160002081905550600a6000858152602001908152602001600020600090556009805480612317577f4e487b7100000000000000000000000000000000000000000000000000000000600052603160045260246000fd5b6001900381819060005260206000200160009055905550505050565b600061233e836109fe565b905081600760008573ffffffffffffffffffffffffffffffffffffffff1673ffffffffffffffffffffffffffffffffffffffff168152602001908152602001600020600083815260200190815260200160002081905550806008600084815260200190815260200160002081905550505050565b8280546123be906131dd565b90600052602060002090601f0160209004810192826123e05760008555612427565b82601f106123f957805160ff1916838001178555612427565b82800160010185558215612427579182015b8281111561242657825182559160200191906001019061240b565b5b5090506124349190612438565b5090565b5b80821115612451576000816000905550600101612439565b5090565b600061246861246384612fb2565b612f8d565b90508281526020810184848401111561248057600080fd5b61248b84828561319b565b509392505050565b60006124a66124a184612fe3565b612f8d565b9050828152602081018484840111156124be57600080fd5b6124c984828561319b565b509392505050565b6000813590506124e0816138f8565b92915050565b6000813590506124f58161390f565b92915050565b60008135905061250a81613926565b92915050565b60008151905061251f81613926565b92915050565b600082601f83011261253657600080fd5b8135612546848260208601612455565b91505092915050565b600082601f83011261256057600080fd5b8135612570848260208601612493565b91505092915050565b6000813590506125888161393d565b92915050565b6000602082840312156125a057600080fd5b60006125ae848285016124d1565b91505092915050565b600080604083850312156125ca57600080fd5b60006125d8858286016124d1565b92505060206125e9858286016124d1565b9150509250929050565b60008060006060848603121561260857600080fd5b6000612616868287016124d1565b9350506020612627868287016124d1565b925050604061263886828701612579565b9150509250925092565b6000806000806080858703121561265857600080fd5b6000612666878288016124d1565b9450506020612677878288016124d1565b935050604061268887828801612579565b925050606085013567ffffffffffffffff8111156126a557600080fd5b6126b187828801612525565b91505092959194509250565b600080604083850312156126d057600080fd5b60006126de858286016124d1565b92505060206126ef858286016124e6565b9150509250929050565b6000806040838503121561270c57600080fd5b600061271a858286016124d1565b925050602061272b85828601612579565b9150509250929050565b60006020828403121561274757600080fd5b6000612755848285016124fb565b91505092915050565b60006020828403121561277057600080fd5b600061277e84828501612510565b91505092915050565b60006020828403121561279957600080fd5b600082013567ffffffffffffffff8111156127b357600080fd5b6127bf8482850161254f565b91505092915050565b6000602082840312156127da57600080fd5b60006127e884828501612579565b91505092915050565b6127fa81613127565b82525050565b61280981613139565b82525050565b600061281a82613029565b612824818561303f565b93506128348185602086016131aa565b61283d81613376565b840191505092915050565b600061285382613034565b61285d8185613050565b935061286d8185602086016131aa565b61287681613376565b840191505092915050565b600061288c82613034565b6128968185613061565b93506128a68185602086016131aa565b80840191505092915050565b600081546128bf816131dd565b6128c98186613061565b945060018216600081146128e457600181146128f557612928565b60ff19831686528186019350612928565b6128fe85613014565b60005b8381101561292057815481890152600182019150602081019050612901565b838801955050505b50505092915050565b600061293e602b83613050565b915061294982613387565b604082019050919050565b6000612961603283613050565b915061296c826133d6565b604082019050919050565b6000612984602683613050565b915061298f82613425565b604082019050919050565b60006129a7602583613050565b91506129b282613474565b604082019050919050565b60006129ca601c83613050565b91506129d5826134c3565b602082019050919050565b60006129ed600883613050565b91506129f8826134ec565b602082019050919050565b6000612a10602483613050565b9150612a1b82613515565b604082019050919050565b6000612a33601983613050565b9150612a3e82613564565b602082019050919050565b6000612a56602c83613050565b9150612a618261358d565b604082019050919050565b6000612a79603883613050565b9150612a84826135dc565b604082019050919050565b6000612a9c602a83613050565b9150612aa78261362b565b604082019050919050565b6000612abf602983613050565b9150612aca8261367a565b604082019050919050565b6000612ae2602083613050565b9150612aed826136c9565b602082019050919050565b6000612b05602c83613050565b9150612b10826136f2565b604082019050919050565b6000612b28600583613061565b9150612b3382613741565b600582019050919050565b6000612b4b602083613050565b9150612b568261376a565b602082019050919050565b6000612b6e602f83613050565b9150612b7982613793565b604082019050919050565b6000612b91602183613050565b9150612b9c826137e2565b604082019050919050565b6000612bb4603183613050565b9150612bbf82613831565b604082019050919050565b6000612bd7601383613050565b9150612be282613880565b602082019050919050565b6000612bfa602c83613050565b9150612c05826138a9565b604082019050919050565b612c1981613191565b82525050565b6000612c2b82856128b2565b9150612c378284612881565b9150612c4282612b1b565b91508190509392505050565b6000602082019050612c6360008301846127f1565b92915050565b6000608082019050612c7e60008301876127f1565b612c8b60208301866127f1565b612c986040830185612c10565b8181036060830152612caa818461280f565b905095945050505050565b6000602082019050612cca6000830184612800565b92915050565b60006020820190508181036000830152612cea8184612848565b905092915050565b60006020820190508181036000830152612d0b81612931565b9050919050565b60006020820190508181036000830152612d2b81612954565b9050919050565b60006020820190508181036000830152612d4b81612977565b9050919050565b60006020820190508181036000830152612d6b8161299a565b9050919050565b60006020820190508181036000830152612d8b816129bd565b9050919050565b60006020820190508181036000830152612dab816129e0565b9050919050565b60006020820190508181036000830152612dcb81612a03565b9050919050565b60006020820190508181036000830152612deb81612a26565b9050919050565b60006020820190508181036000830152612e0b81612a49565b9050919050565b60006020820190508181036000830152612e2b81612a6c565b9050919050565b60006020820190508181036000830152612e4b81612a8f565b9050919050565b60006020820190508181036000830152612e6b81612ab2565b9050919050565b60006020820190508181036000830152612e8b81612ad5565b9050919050565b60006020820190508181036000830152612eab81612af8565b9050919050565b60006020820190508181036000830152612ecb81612b3e565b9050919050565b60006020820190508181036000830152612eeb81612b61565b9050919050565b60006020820190508181036000830152612f0b81612b84565b9050919050565b60006020820190508181036000830152612f2b81612ba7565b9050919050565b60006020820190508181036000830152612f4b81612bca565b9050919050565b60006020820190508181036000830152612f6b81612bed565b9050919050565b6000602082019050612f876000830184612c10565b92915050565b6000612f97612fa8565b9050612fa3828261320f565b919050565b6000604051905090565b600067ffffffffffffffff821115612fcd57612fcc613347565b5b612fd682613376565b9050602081019050919050565b600067ffffffffffffffff821115612ffe57612ffd613347565b5b61300782613376565b9050602081019050919050565b60008190508160005260206000209050919050565b600081519050919050565b600081519050919050565b600082825260208201905092915050565b600082825260208201905092915050565b600081905092915050565b600061307782613191565b915061308283613191565b9250827fffffffffffffffffffffffffffffffffffffffffffffffffffffffffffffffff038211156130b7576130b66132ba565b5b828201905092915050565b60006130cd82613191565b91506130d883613191565b9250826130e8576130e76132e9565b5b828204905092915050565b60006130fe82613191565b915061310983613191565b92508282101561311c5761311b6132ba565b5b828203905092915050565b600061313282613171565b9050919050565b60008115159050919050565b60007fffffffff0000000000000000000000000000000000000000000000000000000082169050919050565b600073ffffffffffffffffffffffffffffffffffffffff82169050919050565b6000819050919050565b82818337600083830152505050565b60005b838110156131c85780820151818401526020810190506131ad565b838111156131d7576000848401525b50505050565b600060028204905060018216806131f557607f821691505b6020821081141561320957613208613318565b5b50919050565b61321882613376565b810181811067ffffffffffffffff8211171561323757613236613347565b5b80604052505050565b600061324b82613191565b91507fffffffffffffffffffffffffffffffffffffffffffffffffffffffffffffffff82141561327e5761327d6132ba565b5b600182019050919050565b600061329482613191565b915061329f83613191565b9250826132af576132ae6132e9565b5b828206905092915050565b7f4e487b7100000000000000000000000000000000000000000000000000000000600052601160045260246000fd5b7f4e487b7100000000000000000000000000000000000000000000000000000000600052601260045260246000fd5b7f4e487b7100000000000000000000000000000000000000000000000000000000600052602260045260246000fd5b7f4e487b7100000000000000000000000000000000000000000000000000000000600052604160045260246000fd5b6000601f19601f8301169050919050565b7f455243373231456e756d657261626c653a206f776e657220696e646578206f7560008201527f74206f6620626f756e6473000000000000000000000000000000000000000000602082015250565b7f4552433732313a207472616e7366657220746f206e6f6e20455243373231526560008201527f63656976657220696d706c656d656e7465720000000000000000000000000000602082015250565b7f4f776e61626c653a206e6577206f776e657220697320746865207a65726f206160008201527f6464726573730000000000000000000000000000000000000000000000000000602082015250565b7f4552433732313a207472616e736665722066726f6d20696e636f72726563742060008201527f6f776e6572000000000000000000000000000000000000000000000000000000602082015250565b7f4552433732313a20746f6b656e20616c7265616479206d696e74656400000000600082015250565b7f64697361626c6564000000000000000000000000000000000000000000000000600082015250565b7f4552433732313a207472616e7366657220746f20746865207a65726f2061646460008201527f7265737300000000000000000000000000000000000000000000000000000000602082015250565b7f4552433732313a20617070726f766520746f2063616c6c657200000000000000600082015250565b7f4552433732313a206f70657261746f7220717565727920666f72206e6f6e657860008201527f697374656e7420746f6b656e0000000000000000000000000000000000000000602082015250565b7f4552433732313a20617070726f76652063616c6c6572206973206e6f74206f7760008201527f6e6572206e6f7220617070726f76656420666f7220616c6c0000000000000000602082015250565b7f4552433732313a2062616c616e636520717565727920666f7220746865207a6560008201527f726f206164647265737300000000000000000000000000000000000000000000602082015250565b7f4552433732313a206f776e657220717565727920666f72206e6f6e657869737460008201527f656e7420746f6b656e0000000000000000000000000000000000000000000000602082015250565b7f4552433732313a206d696e7420746f20746865207a65726f2061646472657373600082015250565b7f4552433732313a20617070726f76656420717565727920666f72206e6f6e657860008201527f697374656e7420746f6b656e0000000000000000000000000000000000000000602082015250565b7f2e6a736f6e000000000000000000000000000000000000000000000000000000600082015250565b7f4f776e61626c653a2063616c6c6572206973206e6f7420746865206f776e6572600082015250565b7f4552433732314d657461646174613a2055524920717565727920666f72206e6f60008201527f6e6578697374656e7420746f6b656e0000000000000000000000000000000000602082015250565b7f4552433732313a20617070726f76616c20746f2063757272656e74206f776e6560008201527f7200000000000000000000000000000000000000000000000000000000000000602082015250565b7f4552433732313a207472616e736665722063616c6c6572206973206e6f74206f60008201527f776e6572206e6f7220617070726f766564000000000000000000000000000000602082015250565b7f546f6b656e20537570706c792045786365656400000000000000000000000000600082015250565b7f455243373231456e756d657261626c653a20676c6f62616c20696e646578206f60008201527f7574206f6620626f756e64730000000000000000000000000000000000000000602082015250565b61390181613127565b811461390c57600080fd5b50565b61391881613139565b811461392357600080fd5b50565b61392f81613145565b811461393a57600080fd5b50565b61394681613191565b811461395157600080fd5b5056fea264697066735822122035ec06abc1f0dab7ab0af174557e240463ab3dc15f7c34160db5e2136341a65564736f6c63430008040033",
  "linkReferences": {},
  "deployedLinkReferences": {}
}