{
  "_format": "hh-sol-artifact-1",
  "contractName": "MyNFT",
  "sourceName": "contracts/MyNFT.sol",
  "abi": [
    {
      "inputs": [
        {
          "internalType": "string",
          "name": "_baseURI",
          "type": "string"
        }
      ],
      "stateMutability": "nonpayable",
      "type": "constructor"
    },
    {
      "anonymous": false,
      "inputs": [
        {
          "indexed": true,
          "internalType": "address",
          "name": "owner",
          "type": "address"
        },
        {
          "indexed": true,
          "internalType": "address",
          "name": "approved",
          "type": "address"
        },
        {
          "indexed": true,
          "internalType": "uint256",
          "name": "tokenId",
          "type": "uint256"
        }
      ],
      "name": "Approval",
      "type": "event"
    },
    {
      "anonymous": false,
      "inputs": [
        {
          "indexed": true,
          "internalType": "address",
          "name": "owner",
          "type": "address"
        },
        {
          "indexed": true,
          "internalType": "address",
          "name": "operator",
          "type": "address"
        },
        {
          "indexed": false,
          "internalType": "bool",
          "name": "approved",
          "type": "bool"
        }
      ],
      "name": "ApprovalForAll",
      "type": "event"
    },
    {
      "anonymous": false,
      "inputs": [
        {
          "indexed": true,
          "internalType": "address",
          "name": "previousOwner",
          "type": "address"
        },
        {
          "indexed": true,
          "internalType": "address",
          "name": "newOwner",
          "type": "address"
        }
      ],
      "name": "OwnershipTransferred",
      "type": "event"
    },
    {
      "anonymous": false,
      "inputs": [
        {
          "indexed": true,
          "internalType": "address",
          "name": "from",
          "type": "address"
        },
        {
          "indexed": true,
          "internalType": "address",
          "name": "to",
          "type": "address"
        },
        {
          "indexed": true,
          "internalType": "uint256",
          "name": "tokenId",
          "type": "uint256"
        }
      ],
      "name": "Transfer",
      "type": "event"
    },
    {
      "inputs": [
        {
          "internalType": "address",
          "name": "to",
          "type": "address"
        },
        {
          "internalType": "uint256",
          "name": "tokenId",
          "type": "uint256"
        }
      ],
      "name": "approve",
      "outputs": [],
      "stateMutability": "nonpayable",
      "type": "function"
    },
    {
      "inputs": [
        {
          "internalType": "address",
          "name": "owner",
          "type": "address"
        }
      ],
      "name": "balanceOf",
      "outputs": [
        {
          "internalType": "uint256",
          "name": "",
          "type": "uint256"
        }
      ],
      "stateMutability": "view",
      "type": "function"
    },
    {
      "inputs": [
        {
          "internalType": "uint256",
          "name": "_mintQty",
          "type": "uint256"
        }
      ],
      "name": "batchMint",
      "outputs": [],
      "stateMutability": "nonpayable",
      "type": "function"
    },
    {
      "inputs": [],
      "name": "disableSetBaseURI",
      "outputs": [],
      "stateMutability": "nonpayable",
      "type": "function"
    },
    {
      "inputs": [
        {
          "internalType": "uint256",
          "name": "tokenId",
          "type": "uint256"
        }
      ],
      "name": "getApproved",
      "outputs": [
        {
          "internalType": "address",
          "name": "",
          "type": "address"
        }
      ],
      "stateMutability": "view",
      "type": "function"
    },
    {
      "inputs": [
        {
          "internalType": "address",
          "name": "owner",
          "type": "address"
        },
        {
          "internalType": "address",
          "name": "operator",
          "type": "address"
        }
      ],
      "name": "isApprovedForAll",
      "outputs": [
        {
          "internalType": "bool",
          "name": "",
          "type": "bool"
        }
      ],
      "stateMutability": "view",
      "type": "function"
    },
    {
      "inputs": [],
      "name": "maxSupply",
      "outputs": [
        {
          "internalType": "uint256",
          "name": "",
          "type": "uint256"
        }
      ],
      "stateMutability": "view",
      "type": "function"
    },
    {
      "inputs": [],
      "name": "name",
      "outputs": [
        {
          "internalType": "string",
          "name": "",
          "type": "string"
        }
      ],
      "stateMutability": "view",
      "type": "function"
    },
    {
      "inputs": [],
      "name": "owner",
      "outputs": [
        {
          "internalType": "address",
          "name": "",
          "type": "address"
        }
      ],
      "stateMutability": "view",
      "type": "function"
    },
    {
      "inputs": [
        {
          "internalType": "uint256",
          "name": "tokenId",
          "type": "uint256"
        }
      ],
      "name": "ownerOf",
      "outputs": [
        {
          "internalType": "address",
          "name": "",
          "type": "address"
        }
      ],
      "stateMutability": "view",
      "type": "function"
    },
    {
      "inputs": [],
      "name": "renounceOwnership",
      "outputs": [],
      "stateMutability": "nonpayable",
      "type": "function"
    },
    {
      "inputs": [
        {
          "internalType": "address",
          "name": "_to",
          "type": "address"
        },
        {
          "internalType": "uint256",
          "name": "_tokenId",
          "type": "uint256"
        }
      ],
      "name": "reserveToken",
      "outputs": [],
      "stateMutability": "nonpayable",
      "type": "function"
    },
    {
      "inputs": [
        {
          "internalType": "address",
          "name": "from",
          "type": "address"
        },
        {
          "internalType": "address",
          "name": "to",
          "type": "address"
        },
        {
          "internalType": "uint256",
          "name": "tokenId",
          "type": "uint256"
        }
      ],
      "name": "safeTransferFrom",
      "outputs": [],
      "stateMutability": "nonpayable",
      "type": "function"
    },
    {
      "inputs": [
        {
          "internalType": "address",
          "name": "from",
          "type": "address"
        },
        {
          "internalType": "address",
          "name": "to",
          "type": "address"
        },
        {
          "internalType": "uint256",
          "name": "tokenId",
          "type": "uint256"
        },
        {
          "internalType": "bytes",
          "name": "_data",
          "type": "bytes"
        }
      ],
      "name": "safeTransferFrom",
      "outputs": [],
      "stateMutability": "nonpayable",
      "type": "function"
    },
    {
      "inputs": [
        {
          "internalType": "address",
          "name": "operator",
          "type": "address"
        },
        {
          "internalType": "bool",
          "name": "approved",
          "type": "bool"
        }
      ],
      "name": "setApprovalForAll",
      "outputs": [],
      "stateMutability": "nonpayable",
      "type": "function"
    },
    {
      "inputs": [
        {
          "internalType": "string",
          "name": "_baseURI",
          "type": "string"
        }
      ],
      "name": "setBaseURI",
      "outputs": [],
      "stateMutability": "nonpayable",
      "type": "function"
    },
    {
      "inputs": [
        {
          "internalType": "bytes4",
          "name": "interfaceId",
          "type": "bytes4"
        }
      ],
      "name": "supportsInterface",
      "outputs": [
        {
          "internalType": "bool",
          "name": "",
          "type": "bool"
        }
      ],
      "stateMutability": "view",
      "type": "function"
    },
    {
      "inputs": [],
      "name": "symbol",
      "outputs": [
        {
          "internalType": "string",
          "name": "",
          "type": "string"
        }
      ],
      "stateMutability": "view",
      "type": "function"
    },
    {
      "inputs": [
        {
          "internalType": "uint256",
          "name": "index",
          "type": "uint256"
        }
      ],
      "name": "tokenByIndex",
      "outputs": [
        {
          "internalType": "uint256",
          "name": "",
          "type": "uint256"
        }
      ],
      "stateMutability": "view",
      "type": "function"
    },
    {
      "inputs": [
        {
          "internalType": "address",
          "name": "owner",
          "type": "address"
        },
        {
          "internalType": "uint256",
          "name": "index",
          "type": "uint256"
        }
      ],
      "name": "tokenOfOwnerByIndex",
      "outputs": [
        {
          "internalType": "uint256",
          "name": "",
          "type": "uint256"
        }
      ],
      "stateMutability": "view",
      "type": "function"
    },
    {
      "inputs": [
        {
          "internalType": "uint256",
          "name": "tokenId",
          "type": "uint256"
        }
      ],
      "name": "tokenURI",
      "outputs": [
        {
          "internalType": "string",
          "name": "",
          "type": "string"
        }
      ],
      "stateMutability": "view",
      "type": "function"
    },
    {
      "inputs": [],
      "name": "totalSupply",
      "outputs": [
        {
          "internalType": "uint256",
          "name": "",
          "type": "uint256"
        }
      ],
      "stateMutability": "view",
      "type": "function"
    },
    {
      "inputs": [
        {
          "internalType": "address",
          "name": "from",
          "type": "address"
        },
        {
          "internalType": "address",
          "name": "to",
          "type": "address"
        },
        {
          "internalType": "uint256",
          "name": "tokenId",
          "type": "uint256"
        }
      ],
      "name": "transferFrom",
      "outputs": [],
      "stateMutability": "nonpayable",
      "type": "function"
    },
    {
      "inputs": [
        {
          "internalType": "address",
          "name": "newOwner",
          "type": "address"
        }
      ],
      "name": "transferOwnership",
      "outputs": [],
      "stateMutability": "nonpayable",
      "type": "function"
    }
  ],
  "bytecode": "0x60806040526005600d556000600e60006101000a81548160ff0219169083151502179055503480156200003157600080fd5b5060405162003f1638038062003f16833981810160405281019062000057919062000327565b6040518060400160405280600581526020017f50656e426c0000000000000000000000000000000000000000000000000000008152506040518060400160405280600381526020017f504e4c00000000000000000000000000000000000000000000000000000000008152508160009080519060200190620000db92919062000205565b508060019080519060200190620000f492919062000205565b505050620001176200010b6200013760201b60201c565b6200013f60201b60201c565b80600c90805190602001906200012f92919062000205565b5050620004dc565b600033905090565b6000600660009054906101000a900473ffffffffffffffffffffffffffffffffffffffff16905081600660006101000a81548173ffffffffffffffffffffffffffffffffffffffff021916908373ffffffffffffffffffffffffffffffffffffffff1602179055508173ffffffffffffffffffffffffffffffffffffffff168173ffffffffffffffffffffffffffffffffffffffff167f8be0079c531659141344cd1fd0a4f28419497f9722a3daafe3b4186f6b6457e060405160405180910390a35050565b828054620002139062000401565b90600052602060002090601f01602090048101928262000237576000855562000283565b82601f106200025257805160ff191683800117855562000283565b8280016001018555821562000283579182015b828111156200028257825182559160200191906001019062000265565b5b50905062000292919062000296565b5090565b5b80821115620002b157600081600090555060010162000297565b5090565b6000620002cc620002c68462000395565b6200036c565b905082815260208101848484011115620002e557600080fd5b620002f2848285620003cb565b509392505050565b600082601f8301126200030c57600080fd5b81516200031e848260208601620002b5565b91505092915050565b6000602082840312156200033a57600080fd5b600082015167ffffffffffffffff8111156200035557600080fd5b6200036384828501620002fa565b91505092915050565b6000620003786200038b565b905062000386828262000437565b919050565b6000604051905090565b600067ffffffffffffffff821115620003b357620003b26200049c565b5b620003be82620004cb565b9050602081019050919050565b60005b83811015620003eb578082015181840152602081019050620003ce565b83811115620003fb576000848401525b50505050565b600060028204905060018216806200041a57607f821691505b602082108114156200043157620004306200046d565b5b50919050565b6200044282620004cb565b810181811067ffffffffffffffff821117156200046457620004636200049c565b5b80604052505050565b7f4e487b7100000000000000000000000000000000000000000000000000000000600052602260045260246000fd5b7f4e487b7100000000000000000000000000000000000000000000000000000000600052604160045260246000fd5b6000601f19601f8301169050919050565b613a2a80620004ec6000396000f3fe608060405234801561001057600080fd5b50600436106101585760003560e01c8063715018a6116100c3578063b10d86551161007c578063b10d8655146103c3578063b88d4fde146103cd578063c87b56dd146103e9578063d5abeb0114610419578063e985e9c514610437578063f2fde38b1461046757610158565b8063715018a61461032957806379657870146103335780638467be0d1461034f5780638da5cb5b1461036b57806395d89b4114610389578063a22cb465146103a757610158565b80632f745c59116101155780632f745c591461023157806342842e0e146102615780634f6ccce71461027d57806355f804b3146102ad5780636352211e146102c957806370a08231146102f957610158565b806301ffc9a71461015d57806306fdde031461018d578063081812fc146101ab578063095ea7b3146101db57806318160ddd146101f757806323b872dd14610215575b600080fd5b610177600480360381019061017291906127d5565b610483565b6040516101849190612d55565b60405180910390f35b610195610495565b6040516101a29190612d70565b60405180910390f35b6101c560048036038101906101c09190612868565b610527565b6040516101d29190612cee565b60405180910390f35b6101f560048036038101906101f09190612799565b6105ac565b005b6101ff6106c4565b60405161020c9190613012565b60405180910390f35b61022f600480360381019061022a9190612693565b6106d1565b005b61024b60048036038101906102469190612799565b610731565b6040516102589190613012565b60405180910390f35b61027b60048036038101906102769190612693565b6107d6565b005b61029760048036038101906102929190612868565b6107f6565b6040516102a49190613012565b60405180910390f35b6102c760048036038101906102c29190612827565b61088d565b005b6102e360048036038101906102de9190612868565b610973565b6040516102f09190612cee565b60405180910390f35b610313600480360381019061030e919061262e565b610a25565b6040516103209190613012565b60405180910390f35b610331610add565b005b61034d60048036038101906103489190612799565b610b65565b005b61036960048036038101906103649190612868565b610c33565b005b610373610d00565b6040516103809190612cee565b60405180910390f35b610391610d2a565b60405161039e9190612d70565b60405180910390f35b6103c160048036038101906103bc919061275d565b610dbc565b005b6103cb610dd2565b005b6103e760048036038101906103e291906126e2565b610e6b565b005b61040360048036038101906103fe9190612868565b610ecd565b6040516104109190612d70565b60405180910390f35b610421610f75565b60405161042e9190613012565b60405180910390f35b610451600480360381019061044c9190612657565b610f7b565b60405161045e9190612d55565b60405180910390f35b610481600480360381019061047c919061262e565b61100f565b005b600061048e82611107565b9050919050565b6060600080546104a49061327d565b80601f01602080910402602001604051908101604052809291908181526020018280546104d09061327d565b801561051d5780601f106104f25761010080835404028352916020019161051d565b820191906000526020600020905b81548152906001019060200180831161050057829003601f168201915b5050505050905090565b600061053282611181565b610571576040517f08c379a000000000000000000000000000000000000000000000000000000000815260040161056890612f32565b60405180910390fd5b6004600083815260200190815260200160002060009054906101000a900473ffffffffffffffffffffffffffffffffffffffff169050919050565b60006105b782610973565b90508073ffffffffffffffffffffffffffffffffffffffff168373ffffffffffffffffffffffffffffffffffffffff161415610628576040517f08c379a000000000000000000000000000000000000000000000000000000000815260040161061f90612f92565b60405180910390fd5b8073ffffffffffffffffffffffffffffffffffffffff166106476111ed565b73ffffffffffffffffffffffffffffffffffffffff1614806106765750610675816106706111ed565b610f7b565b5b6106b5576040517f08c379a00000000000000000000000000000000000000000000000000000000081526004016106ac90612eb2565b60405180910390fd5b6106bf83836111f5565b505050565b6000600980549050905090565b6106e26106dc6111ed565b826112ae565b610721576040517f08c379a000000000000000000000000000000000000000000000000000000000815260040161071890612fb2565b60405180910390fd5b61072c83838361138c565b505050565b600061073c83610a25565b821061077d576040517f08c379a000000000000000000000000000000000000000000000000000000000815260040161077490612d92565b60405180910390fd5b600760008473ffffffffffffffffffffffffffffffffffffffff1673ffffffffffffffffffffffffffffffffffffffff168152602001908152602001600020600083815260200190815260200160002054905092915050565b6107f183838360405180602001604052806000815250610e6b565b505050565b60006108006106c4565b8210610841576040517f08c379a000000000000000000000000000000000000000000000000000000000815260040161083890612ff2565b60405180910390fd5b6009828154811061087b577f4e487b7100000000000000000000000000000000000000000000000000000000600052603260045260246000fd5b90600052602060002001549050919050565b6108956111ed565b73ffffffffffffffffffffffffffffffffffffffff166108b3610d00565b73ffffffffffffffffffffffffffffffffffffffff1614610909576040517f08c379a000000000000000000000000000000000000000000000000000000000815260040161090090612f52565b60405180910390fd5b600e60009054906101000a900460ff1615610959576040517f08c379a000000000000000000000000000000000000000000000000000000000815260040161095090612e32565b60405180910390fd5b80600c908051906020019061096f929190612452565b5050565b6000806002600084815260200190815260200160002060009054906101000a900473ffffffffffffffffffffffffffffffffffffffff169050600073ffffffffffffffffffffffffffffffffffffffff168173ffffffffffffffffffffffffffffffffffffffff161415610a1c576040517f08c379a0000000000000000000000000000000000000000000000000000000008152600401610a1390612ef2565b60405180910390fd5b80915050919050565b60008073ffffffffffffffffffffffffffffffffffffffff168273ffffffffffffffffffffffffffffffffffffffff161415610a96576040517f08c379a0000000000000000000000000000000000000000000000000000000008152600401610a8d90612ed2565b60405180910390fd5b600360008373ffffffffffffffffffffffffffffffffffffffff1673ffffffffffffffffffffffffffffffffffffffff168152602001908152602001600020549050919050565b610ae56111ed565b73ffffffffffffffffffffffffffffffffffffffff16610b03610d00565b73ffffffffffffffffffffffffffffffffffffffff1614610b59576040517f08c379a0000000000000000000000000000000000000000000000000000000008152600401610b5090612f52565b60405180910390fd5b610b6360006115f3565b565b610b6d6111ed565b73ffffffffffffffffffffffffffffffffffffffff16610b8b610d00565b73ffffffffffffffffffffffffffffffffffffffff1614610be1576040517f08c379a0000000000000000000000000000000000000000000000000000000008152600401610bd890612f52565b60405180910390fd5b600d548110610c25576040517f08c379a0000000000000000000000000000000000000000000000000000000008152600401610c1c90612fd2565b60405180910390fd5b610c2f82826116b9565b5050565b600d5481610c3f6106c4565b610c49919061310c565b1115610c8a576040517f08c379a0000000000000000000000000000000000000000000000000000000008152600401610c8190612fd2565b60405180910390fd5b6000600190505b818111610cfc576000610ca4600b6116d7565b9050610cb0600b6116e5565b610cb981611181565b610cd357610cce610cc86111ed565b826116b9565b610ce7565b8280610cde906132e0565b93505050610ce9565b505b8080610cf4906132e0565b915050610c91565b5050565b6000600660009054906101000a900473ffffffffffffffffffffffffffffffffffffffff16905090565b606060018054610d399061327d565b80601f0160208091040260200160405190810160405280929190818152602001828054610d659061327d565b8015610db25780601f10610d8757610100808354040283529160200191610db2565b820191906000526020600020905b815481529060010190602001808311610d9557829003601f168201915b5050505050905090565b610dce610dc76111ed565b83836116fb565b5050565b610dda6111ed565b73ffffffffffffffffffffffffffffffffffffffff16610df8610d00565b73ffffffffffffffffffffffffffffffffffffffff1614610e4e576040517f08c379a0000000000000000000000000000000000000000000000000000000008152600401610e4590612f52565b60405180910390fd5b6001600e60006101000a81548160ff021916908315150217905550565b610e7c610e766111ed565b836112ae565b610ebb576040517f08c379a0000000000000000000000000000000000000000000000000000000008152600401610eb290612fb2565b60405180910390fd5b610ec784848484611868565b50505050565b6060610ed882611181565b610f17576040517f08c379a0000000000000000000000000000000000000000000000000000000008152600401610f0e90612f72565b60405180910390fd5b6000600c8054610f269061327d565b905011610f425760405180602001604052806000815250610f6e565b600c610f4d836118c4565b604051602001610f5e929190612cbf565b6040516020818303038152906040525b9050919050565b600d5481565b6000600560008473ffffffffffffffffffffffffffffffffffffffff1673ffffffffffffffffffffffffffffffffffffffff16815260200190815260200160002060008373ffffffffffffffffffffffffffffffffffffffff1673ffffffffffffffffffffffffffffffffffffffff16815260200190815260200160002060009054906101000a900460ff16905092915050565b6110176111ed565b73ffffffffffffffffffffffffffffffffffffffff16611035610d00565b73ffffffffffffffffffffffffffffffffffffffff161461108b576040517f08c379a000000000000000000000000000000000000000000000000000000000815260040161108290612f52565b60405180910390fd5b600073ffffffffffffffffffffffffffffffffffffffff168173ffffffffffffffffffffffffffffffffffffffff1614156110fb576040517f08c379a00000000000000000000000000000000000000000000000000000000081526004016110f290612dd2565b60405180910390fd5b611104816115f3565b50565b60007f780e9d63000000000000000000000000000000000000000000000000000000007bffffffffffffffffffffffffffffffffffffffffffffffffffffffff1916827bffffffffffffffffffffffffffffffffffffffffffffffffffffffff1916148061117a575061117982611a71565b5b9050919050565b60008073ffffffffffffffffffffffffffffffffffffffff166002600084815260200190815260200160002060009054906101000a900473ffffffffffffffffffffffffffffffffffffffff1673ffffffffffffffffffffffffffffffffffffffff1614159050919050565b600033905090565b816004600083815260200190815260200160002060006101000a81548173ffffffffffffffffffffffffffffffffffffffff021916908373ffffffffffffffffffffffffffffffffffffffff160217905550808273ffffffffffffffffffffffffffffffffffffffff1661126883610973565b73ffffffffffffffffffffffffffffffffffffffff167f8c5be1e5ebec7d5bd14f71427d1e84f3dd0314c0f7b2291e5b200ac8c7c3b92560405160405180910390a45050565b60006112b982611181565b6112f8576040517f08c379a00000000000000000000000000000000000000000000000000000000081526004016112ef90612e92565b60405180910390fd5b600061130383610973565b90508073ffffffffffffffffffffffffffffffffffffffff168473ffffffffffffffffffffffffffffffffffffffff16148061134557506113448185610f7b565b5b8061138357508373ffffffffffffffffffffffffffffffffffffffff1661136b84610527565b73ffffffffffffffffffffffffffffffffffffffff16145b91505092915050565b8273ffffffffffffffffffffffffffffffffffffffff166113ac82610973565b73ffffffffffffffffffffffffffffffffffffffff1614611402576040517f08c379a00000000000000000000000000000000000000000000000000000000081526004016113f990612df2565b60405180910390fd5b600073ffffffffffffffffffffffffffffffffffffffff168273ffffffffffffffffffffffffffffffffffffffff161415611472576040517f08c379a000000000000000000000000000000000000000000000000000000000815260040161146990612e52565b60405180910390fd5b61147d838383611b53565b6114886000826111f5565b6001600360008573ffffffffffffffffffffffffffffffffffffffff1673ffffffffffffffffffffffffffffffffffffffff16815260200190815260200160002060008282546114d89190613193565b925050819055506001600360008473ffffffffffffffffffffffffffffffffffffffff1673ffffffffffffffffffffffffffffffffffffffff168152602001908152602001600020600082825461152f919061310c565b92505081905550816002600083815260200190815260200160002060006101000a81548173ffffffffffffffffffffffffffffffffffffffff021916908373ffffffffffffffffffffffffffffffffffffffff160217905550808273ffffffffffffffffffffffffffffffffffffffff168473ffffffffffffffffffffffffffffffffffffffff167fddf252ad1be2c89b69c2b068fc378daa952ba7f163c4a11628f55a4df523b3ef60405160405180910390a46115ee838383611b63565b505050565b6000600660009054906101000a900473ffffffffffffffffffffffffffffffffffffffff16905081600660006101000a81548173ffffffffffffffffffffffffffffffffffffffff021916908373ffffffffffffffffffffffffffffffffffffffff1602179055508173ffffffffffffffffffffffffffffffffffffffff168173ffffffffffffffffffffffffffffffffffffffff167f8be0079c531659141344cd1fd0a4f28419497f9722a3daafe3b4186f6b6457e060405160405180910390a35050565b6116d3828260405180602001604052806000815250611b68565b5050565b600081600001549050919050565b6001816000016000828254019250508190555050565b8173ffffffffffffffffffffffffffffffffffffffff168373ffffffffffffffffffffffffffffffffffffffff16141561176a576040517f08c379a000000000000000000000000000000000000000000000000000000000815260040161176190612e72565b60405180910390fd5b80600560008573ffffffffffffffffffffffffffffffffffffffff1673ffffffffffffffffffffffffffffffffffffffff16815260200190815260200160002060008473ffffffffffffffffffffffffffffffffffffffff1673ffffffffffffffffffffffffffffffffffffffff16815260200190815260200160002060006101000a81548160ff0219169083151502179055508173ffffffffffffffffffffffffffffffffffffffff168373ffffffffffffffffffffffffffffffffffffffff167f17307eab39ab6107e8899845ad3d59bd9653f200f220920489ca2b5937696c318360405161185b9190612d55565b60405180910390a3505050565b61187384848461138c565b61187f84848484611bc3565b6118be576040517f08c379a00000000000000000000000000000000000000000000000000000000081526004016118b590612db2565b60405180910390fd5b50505050565b6060600082141561190c576040518060400160405280600181526020017f30000000000000000000000000000000000000000000000000000000000000008152509050611a6c565b600082905060005b6000821461193e578080611927906132e0565b915050600a826119379190613162565b9150611914565b60008167ffffffffffffffff811115611980577f4e487b7100000000000000000000000000000000000000000000000000000000600052604160045260246000fd5b6040519080825280601f01601f1916602001820160405280156119b25781602001600182028036833780820191505090505b5090505b60008514611a65576001826119cb9190613193565b9150600a856119da9190613329565b60306119e6919061310c565b60f81b818381518110611a22577f4e487b7100000000000000000000000000000000000000000000000000000000600052603260045260246000fd5b60200101907effffffffffffffffffffffffffffffffffffffffffffffffffffffffffffff1916908160001a905350600a85611a5e9190613162565b94506119b6565b8093505050505b919050565b60007f80ac58cd000000000000000000000000000000000000000000000000000000007bffffffffffffffffffffffffffffffffffffffffffffffffffffffff1916827bffffffffffffffffffffffffffffffffffffffffffffffffffffffff19161480611b3c57507f5b5e139f000000000000000000000000000000000000000000000000000000007bffffffffffffffffffffffffffffffffffffffffffffffffffffffff1916827bffffffffffffffffffffffffffffffffffffffffffffffffffffffff1916145b80611b4c5750611b4b82611d5a565b5b9050919050565b611b5e838383611dc4565b505050565b505050565b611b728383611ed8565b611b7f6000848484611bc3565b611bbe576040517f08c379a0000000000000000000000000000000000000000000000000000000008152600401611bb590612db2565b60405180910390fd5b505050565b6000611be48473ffffffffffffffffffffffffffffffffffffffff166120b2565b15611d4d578373ffffffffffffffffffffffffffffffffffffffff1663150b7a02611c0d6111ed565b8786866040518563ffffffff1660e01b8152600401611c2f9493929190612d09565b602060405180830381600087803b158015611c4957600080fd5b505af1925050508015611c7a57506040513d601f19601f82011682018060405250810190611c7791906127fe565b60015b611cfd573d8060008114611caa576040519150601f19603f3d011682016040523d82523d6000602084013e611caf565b606091505b50600081511415611cf5576040517f08c379a0000000000000000000000000000000000000000000000000000000008152600401611cec90612db2565b60405180910390fd5b805181602001fd5b63150b7a0260e01b7bffffffffffffffffffffffffffffffffffffffffffffffffffffffff1916817bffffffffffffffffffffffffffffffffffffffffffffffffffffffff191614915050611d52565b600190505b949350505050565b60007f01ffc9a7000000000000000000000000000000000000000000000000000000007bffffffffffffffffffffffffffffffffffffffffffffffffffffffff1916827bffffffffffffffffffffffffffffffffffffffffffffffffffffffff1916149050919050565b611dcf8383836120d5565b600073ffffffffffffffffffffffffffffffffffffffff168373ffffffffffffffffffffffffffffffffffffffff161415611e1257611e0d816120da565b611e51565b8173ffffffffffffffffffffffffffffffffffffffff168373ffffffffffffffffffffffffffffffffffffffff1614611e5057611e4f8382612123565b5b5b600073ffffffffffffffffffffffffffffffffffffffff168273ffffffffffffffffffffffffffffffffffffffff161415611e9457611e8f81612290565b611ed3565b8273ffffffffffffffffffffffffffffffffffffffff168273ffffffffffffffffffffffffffffffffffffffff1614611ed257611ed182826123d3565b5b5b505050565b600073ffffffffffffffffffffffffffffffffffffffff168273ffffffffffffffffffffffffffffffffffffffff161415611f48576040517f08c379a0000000000000000000000000000000000000000000000000000000008152600401611f3f90612f12565b60405180910390fd5b611f5181611181565b15611f91576040517f08c379a0000000000000000000000000000000000000000000000000000000008152600401611f8890612e12565b60405180910390fd5b611f9d60008383611b53565b6001600360008473ffffffffffffffffffffffffffffffffffffffff1673ffffffffffffffffffffffffffffffffffffffff1681526020019081526020016000206000828254611fed919061310c565b92505081905550816002600083815260200190815260200160002060006101000a81548173ffffffffffffffffffffffffffffffffffffffff021916908373ffffffffffffffffffffffffffffffffffffffff160217905550808273ffffffffffffffffffffffffffffffffffffffff16600073ffffffffffffffffffffffffffffffffffffffff167fddf252ad1be2c89b69c2b068fc378daa952ba7f163c4a11628f55a4df523b3ef60405160405180910390a46120ae60008383611b63565b5050565b6000808273ffffffffffffffffffffffffffffffffffffffff163b119050919050565b505050565b600980549050600a600083815260200190815260200160002081905550600981908060018154018082558091505060019003906000526020600020016000909190919091505550565b6000600161213084610a25565b61213a9190613193565b905060006008600084815260200190815260200160002054905081811461221f576000600760008673ffffffffffffffffffffffffffffffffffffffff1673ffffffffffffffffffffffffffffffffffffffff168152602001908152602001600020600084815260200190815260200160002054905080600760008773ffffffffffffffffffffffffffffffffffffffff1673ffffffffffffffffffffffffffffffffffffffff168152602001908152602001600020600084815260200190815260200160002081905550816008600083815260200190815260200160002081905550505b6008600084815260200190815260200160002060009055600760008573ffffffffffffffffffffffffffffffffffffffff1673ffffffffffffffffffffffffffffffffffffffff16815260200190815260200160002060008381526020019081526020016000206000905550505050565b600060016009805490506122a49190613193565b90506000600a60008481526020019081526020016000205490506000600983815481106122fa577f4e487b7100000000000000000000000000000000000000000000000000000000600052603260045260246000fd5b906000526020600020015490508060098381548110612342577f4e487b7100000000000000000000000000000000000000000000000000000000600052603260045260246000fd5b906000526020600020018190555081600a600083815260200190815260200160002081905550600a60008581526020019081526020016000206000905560098054806123b7577f4e487b7100000000000000000000000000000000000000000000000000000000600052603160045260246000fd5b6001900381819060005260206000200160009055905550505050565b60006123de83610a25565b905081600760008573ffffffffffffffffffffffffffffffffffffffff1673ffffffffffffffffffffffffffffffffffffffff168152602001908152602001600020600083815260200190815260200160002081905550806008600084815260200190815260200160002081905550505050565b82805461245e9061327d565b90600052602060002090601f01602090048101928261248057600085556124c7565b82601f1061249957805160ff19168380011785556124c7565b828001600101855582156124c7579182015b828111156124c65782518255916020019190600101906124ab565b5b5090506124d491906124d8565b5090565b5b808211156124f15760008160009055506001016124d9565b5090565b600061250861250384613052565b61302d565b90508281526020810184848401111561252057600080fd5b61252b84828561323b565b509392505050565b600061254661254184613083565b61302d565b90508281526020810184848401111561255e57600080fd5b61256984828561323b565b509392505050565b60008135905061258081613998565b92915050565b600081359050612595816139af565b92915050565b6000813590506125aa816139c6565b92915050565b6000815190506125bf816139c6565b92915050565b600082601f8301126125d657600080fd5b81356125e68482602086016124f5565b91505092915050565b600082601f83011261260057600080fd5b8135612610848260208601612533565b91505092915050565b600081359050612628816139dd565b92915050565b60006020828403121561264057600080fd5b600061264e84828501612571565b91505092915050565b6000806040838503121561266a57600080fd5b600061267885828601612571565b925050602061268985828601612571565b9150509250929050565b6000806000606084860312156126a857600080fd5b60006126b686828701612571565b93505060206126c786828701612571565b92505060406126d886828701612619565b9150509250925092565b600080600080608085870312156126f857600080fd5b600061270687828801612571565b945050602061271787828801612571565b935050604061272887828801612619565b925050606085013567ffffffffffffffff81111561274557600080fd5b612751878288016125c5565b91505092959194509250565b6000806040838503121561277057600080fd5b600061277e85828601612571565b925050602061278f85828601612586565b9150509250929050565b600080604083850312156127ac57600080fd5b60006127ba85828601612571565b92505060206127cb85828601612619565b9150509250929050565b6000602082840312156127e757600080fd5b60006127f58482850161259b565b91505092915050565b60006020828403121561281057600080fd5b600061281e848285016125b0565b91505092915050565b60006020828403121561283957600080fd5b600082013567ffffffffffffffff81111561285357600080fd5b61285f848285016125ef565b91505092915050565b60006020828403121561287a57600080fd5b600061288884828501612619565b91505092915050565b61289a816131c7565b82525050565b6128a9816131d9565b82525050565b60006128ba826130c9565b6128c481856130df565b93506128d481856020860161324a565b6128dd81613416565b840191505092915050565b60006128f3826130d4565b6128fd81856130f0565b935061290d81856020860161324a565b61291681613416565b840191505092915050565b600061292c826130d4565b6129368185613101565b935061294681856020860161324a565b80840191505092915050565b6000815461295f8161327d565b6129698186613101565b945060018216600081146129845760018114612995576129c8565b60ff198316865281860193506129c8565b61299e856130b4565b60005b838110156129c0578154818901526001820191506020810190506129a1565b838801955050505b50505092915050565b60006129de602b836130f0565b91506129e982613427565b604082019050919050565b6000612a016032836130f0565b9150612a0c82613476565b604082019050919050565b6000612a246026836130f0565b9150612a2f826134c5565b604082019050919050565b6000612a476025836130f0565b9150612a5282613514565b604082019050919050565b6000612a6a601c836130f0565b9150612a7582613563565b602082019050919050565b6000612a8d6008836130f0565b9150612a988261358c565b602082019050919050565b6000612ab06024836130f0565b9150612abb826135b5565b604082019050919050565b6000612ad36019836130f0565b9150612ade82613604565b602082019050919050565b6000612af6602c836130f0565b9150612b018261362d565b604082019050919050565b6000612b196038836130f0565b9150612b248261367c565b604082019050919050565b6000612b3c602a836130f0565b9150612b47826136cb565b604082019050919050565b6000612b5f6029836130f0565b9150612b6a8261371a565b604082019050919050565b6000612b826020836130f0565b9150612b8d82613769565b602082019050919050565b6000612ba5602c836130f0565b9150612bb082613792565b604082019050919050565b6000612bc8600583613101565b9150612bd3826137e1565b600582019050919050565b6000612beb6020836130f0565b9150612bf68261380a565b602082019050919050565b6000612c0e602f836130f0565b9150612c1982613833565b604082019050919050565b6000612c316021836130f0565b9150612c3c82613882565b604082019050919050565b6000612c546031836130f0565b9150612c5f826138d1565b604082019050919050565b6000612c776013836130f0565b9150612c8282613920565b602082019050919050565b6000612c9a602c836130f0565b9150612ca582613949565b604082019050919050565b612cb981613231565b82525050565b6000612ccb8285612952565b9150612cd78284612921565b9150612ce282612bbb565b91508190509392505050565b6000602082019050612d036000830184612891565b92915050565b6000608082019050612d1e6000830187612891565b612d2b6020830186612891565b612d386040830185612cb0565b8181036060830152612d4a81846128af565b905095945050505050565b6000602082019050612d6a60008301846128a0565b92915050565b60006020820190508181036000830152612d8a81846128e8565b905092915050565b60006020820190508181036000830152612dab816129d1565b9050919050565b60006020820190508181036000830152612dcb816129f4565b9050919050565b60006020820190508181036000830152612deb81612a17565b9050919050565b60006020820190508181036000830152612e0b81612a3a565b9050919050565b60006020820190508181036000830152612e2b81612a5d565b9050919050565b60006020820190508181036000830152612e4b81612a80565b9050919050565b60006020820190508181036000830152612e6b81612aa3565b9050919050565b60006020820190508181036000830152612e8b81612ac6565b9050919050565b60006020820190508181036000830152612eab81612ae9565b9050919050565b60006020820190508181036000830152612ecb81612b0c565b9050919050565b60006020820190508181036000830152612eeb81612b2f565b9050919050565b60006020820190508181036000830152612f0b81612b52565b9050919050565b60006020820190508181036000830152612f2b81612b75565b9050919050565b60006020820190508181036000830152612f4b81612b98565b9050919050565b60006020820190508181036000830152612f6b81612bde565b9050919050565b60006020820190508181036000830152612f8b81612c01565b9050919050565b60006020820190508181036000830152612fab81612c24565b9050919050565b60006020820190508181036000830152612fcb81612c47565b9050919050565b60006020820190508181036000830152612feb81612c6a565b9050919050565b6000602082019050818103600083015261300b81612c8d565b9050919050565b60006020820190506130276000830184612cb0565b92915050565b6000613037613048565b905061304382826132af565b919050565b6000604051905090565b600067ffffffffffffffff82111561306d5761306c6133e7565b5b61307682613416565b9050602081019050919050565b600067ffffffffffffffff82111561309e5761309d6133e7565b5b6130a782613416565b9050602081019050919050565b60008190508160005260206000209050919050565b600081519050919050565b600081519050919050565b600082825260208201905092915050565b600082825260208201905092915050565b600081905092915050565b600061311782613231565b915061312283613231565b9250827fffffffffffffffffffffffffffffffffffffffffffffffffffffffffffffffff038211156131575761315661335a565b5b828201905092915050565b600061316d82613231565b915061317883613231565b92508261318857613187613389565b5b828204905092915050565b600061319e82613231565b91506131a983613231565b9250828210156131bc576131bb61335a565b5b828203905092915050565b60006131d282613211565b9050919050565b60008115159050919050565b60007fffffffff0000000000000000000000000000000000000000000000000000000082169050919050565b600073ffffffffffffffffffffffffffffffffffffffff82169050919050565b6000819050919050565b82818337600083830152505050565b60005b8381101561326857808201518184015260208101905061324d565b83811115613277576000848401525b50505050565b6000600282049050600182168061329557607f821691505b602082108114156132a9576132a86133b8565b5b50919050565b6132b882613416565b810181811067ffffffffffffffff821117156132d7576132d66133e7565b5b80604052505050565b60006132eb82613231565b91507fffffffffffffffffffffffffffffffffffffffffffffffffffffffffffffffff82141561331e5761331d61335a565b5b600182019050919050565b600061333482613231565b915061333f83613231565b92508261334f5761334e613389565b5b828206905092915050565b7f4e487b7100000000000000000000000000000000000000000000000000000000600052601160045260246000fd5b7f4e487b7100000000000000000000000000000000000000000000000000000000600052601260045260246000fd5b7f4e487b7100000000000000000000000000000000000000000000000000000000600052602260045260246000fd5b7f4e487b7100000000000000000000000000000000000000000000000000000000600052604160045260246000fd5b6000601f19601f8301169050919050565b7f455243373231456e756d657261626c653a206f776e657220696e646578206f7560008201527f74206f6620626f756e6473000000000000000000000000000000000000000000602082015250565b7f4552433732313a207472616e7366657220746f206e6f6e20455243373231526560008201527f63656976657220696d706c656d656e7465720000000000000000000000000000602082015250565b7f4f776e61626c653a206e6577206f776e657220697320746865207a65726f206160008201527f6464726573730000000000000000000000000000000000000000000000000000602082015250565b7f4552433732313a207472616e736665722066726f6d20696e636f72726563742060008201527f6f776e6572000000000000000000000000000000000000000000000000000000602082015250565b7f4552433732313a20746f6b656e20616c7265616479206d696e74656400000000600082015250565b7f64697361626c6564000000000000000000000000000000000000000000000000600082015250565b7f4552433732313a207472616e7366657220746f20746865207a65726f2061646460008201527f7265737300000000000000000000000000000000000000000000000000000000602082015250565b7f4552433732313a20617070726f766520746f2063616c6c657200000000000000600082015250565b7f4552433732313a206f70657261746f7220717565727920666f72206e6f6e657860008201527f697374656e7420746f6b656e0000000000000000000000000000000000000000602082015250565b7f4552433732313a20617070726f76652063616c6c6572206973206e6f74206f7760008201527f6e6572206e6f7220617070726f76656420666f7220616c6c0000000000000000602082015250565b7f4552433732313a2062616c616e636520717565727920666f7220746865207a6560008201527f726f206164647265737300000000000000000000000000000000000000000000602082015250565b7f4552433732313a206f776e657220717565727920666f72206e6f6e657869737460008201527f656e7420746f6b656e0000000000000000000000000000000000000000000000602082015250565b7f4552433732313a206d696e7420746f20746865207a65726f2061646472657373600082015250565b7f4552433732313a20617070726f76656420717565727920666f72206e6f6e657860008201527f697374656e7420746f6b656e0000000000000000000000000000000000000000602082015250565b7f2e6a736f6e000000000000000000000000000000000000000000000000000000600082015250565b7f4f776e61626c653a2063616c6c6572206973206e6f7420746865206f776e6572600082015250565b7f4552433732314d657461646174613a2055524920717565727920666f72206e6f60008201527f6e6578697374656e7420746f6b656e0000000000000000000000000000000000602082015250565b7f4552433732313a20617070726f76616c20746f2063757272656e74206f776e6560008201527f7200000000000000000000000000000000000000000000000000000000000000602082015250565b7f4552433732313a207472616e736665722063616c6c6572206973206e6f74206f60008201527f776e6572206e6f7220617070726f766564000000000000000000000000000000602082015250565b7f546f6b656e20537570706c792045786365656400000000000000000000000000600082015250565b7f455243373231456e756d657261626c653a20676c6f62616c20696e646578206f60008201527f7574206f6620626f756e64730000000000000000000000000000000000000000602082015250565b6139a1816131c7565b81146139ac57600080fd5b50565b6139b8816131d9565b81146139c357600080fd5b50565b6139cf816131e5565b81146139da57600080fd5b50565b6139e681613231565b81146139f157600080fd5b5056fea2646970667358221220962b0d947e9c406ceaecbed771f3b5997b3d25936fd067d2ec95b49f2f371c3764736f6c63430008040033",
  "linkReferences": {},
  "deployedLinkReferences": {}
}